{
  "contractName": "Faucet",
  "abi": [
    {
      "inputs": [],
      "name": "numOfFunders",
      "outputs": [
        {
          "internalType": "uint256",
          "name": "",
          "type": "uint256"
        }
      ],
      "stateMutability": "view",
      "type": "function",
      "constant": true
    },
    {
      "stateMutability": "payable",
      "type": "receive",
      "payable": true
    },
    {
      "inputs": [],
      "name": "addFunds",
      "outputs": [],
      "stateMutability": "payable",
      "type": "function",
      "payable": true
    },
    {
      "inputs": [
        {
          "internalType": "uint256",
          "name": "index",
          "type": "uint256"
        }
      ],
      "name": "getFundersIndex",
      "outputs": [
        {
          "internalType": "address",
          "name": "",
          "type": "address"
        }
      ],
      "stateMutability": "view",
      "type": "function",
      "constant": true
    },
    {
      "inputs": [],
      "name": "getAllFunders",
      "outputs": [
        {
          "internalType": "address[]",
          "name": "",
          "type": "address[]"
        }
      ],
      "stateMutability": "view",
      "type": "function",
      "constant": true
    },
    {
      "inputs": [
        {
          "internalType": "uint256",
          "name": "withdrawAmount",
          "type": "uint256"
        }
      ],
      "name": "withdraw",
      "outputs": [],
      "stateMutability": "nonpayable",
      "type": "function"
    }
  ],
  "bytecode": "0x608060405234801561001057600080fd5b506103c4806100206000396000f3fe60806040526004361061004e5760003560e01c80632e1472de1461005a5780632e1a7d4d146100ad5780636fbbb55d146100cf578063a26759cb146100f1578063af7f2c9b146100f957600080fd5b3661005557005b600080fd5b34801561006657600080fd5b506100906100753660046102d5565b6000908152600160205260409020546001600160a01b031690565b6040516001600160a01b0390911681526020015b60405180910390f35b3480156100b957600080fd5b506100cd6100c83660046102d5565b61011d565b005b3480156100db57600080fd5b506100e46101ac565b6040516100a491906102ee565b6100cd610262565b34801561010557600080fd5b5061010f60005481565b6040519081526020016100a4565b80670de0b6b3a764000081111561017a5760405162461bcd60e51b815260206004820152601f60248201527f43616e6e6f74207769746864726177206d6f7265207468616e20312045544800604482015260640160405180910390fd5b604051339083156108fc029084906000818181858888f193505050501580156101a7573d6000803e3d6000fd5b505050565b60606000805467ffffffffffffffff8111156101ca576101ca61033b565b6040519080825280602002602001820160405280156101f3578160200160208202803683370190505b50905060005b60005481101561025c5760008181526001602052604090205482516001600160a01b039091169083908390811061023257610232610351565b6001600160a01b03909216602092830291909101909101528061025481610367565b9150506101f9565b50919050565b3360008181526002602052604090205460ff166102d25760008054818061028883610367565b909155506001600160a01b0383166000818152600260209081526040808320805460ff191660019081179091559483529390529190912080546001600160a01b0319169091179055505b50565b6000602082840312156102e757600080fd5b5035919050565b6020808252825182820181905260009190848201906040850190845b8181101561032f5783516001600160a01b03168352928401929184019160010161030a565b50909695505050505050565b634e487b7160e01b600052604160045260246000fd5b634e487b7160e01b600052603260045260246000fd5b60006001820161038757634e487b7160e01b600052601160045260246000fd5b506001019056fea26469706673582212202b3b73f822440122ce29cc7dece57716964f3e95055d24fb1afb09849cf5692064736f6c63430008150033",
  "immutableReferences": {},
  "source": "// SPDX-License-Identifier: SEE LICENSE IN LICENSE\npragma solidity 0.8.21;\n\ncontract Faucet {\n    //function: Addfunds, withdraw, addressIndex, getFunders\n\n    uint256 public numOfFunders;\n\n    mapping(uint256 => address) private lutFunders;\n    mapping(address => bool) private funders;\n\n    receive() external payable {}\n\n    function addFunds() external payable {\n        address funder = msg.sender;\n        if (!funders[funder]) {\n            uint256 index = numOfFunders++;\n            funders[funder] = true;\n            lutFunders[index] = funder;\n        }\n    }\n\n    function getFundersIndex(uint256 index) public view returns (address) {\n        return lutFunders[index];\n    }\n\n    function getAllFunders() public view returns (address[] memory) {\n        address[] memory _funders = new address[](numOfFunders);\n\n        for (uint256 i = 0; i < numOfFunders; i++) {\n            _funders[i] = lutFunders[i];\n        }\n        return _funders;\n    }\n\n    function withdraw(\n        uint256 withdrawAmount\n    ) external limitWithdraw(withdrawAmount) {\n        payable(msg.sender).transfer(withdrawAmount);\n    }\n\n    //modifier\n    modifier limitWithdraw(uint256 withdrawAmount) {\n        require(\n            withdrawAmount <= 1 * (10 ** 18),\n            \"Cannot withdraw more than 1 ETH\"\n        );\n        _;\n    }\n}\n",
  "sourcePath": "D:\\faucet_source_final_solidity\\contracts\\Faucet.sol",
  "compiler": {
    "name": "solc",
    "version": "0.8.21+commit.d9974bed.Emscripten.clang"
  },
  "schemaVersion": "3.4.16",
  "updatedAt": "2025-10-03T07:22:18.694Z",
  "networkType": "ethereum",
  "devdoc": {
    "kind": "dev",
    "methods": {},
    "version": 1
  },
  "userdoc": {
    "kind": "user",
    "methods": {},
    "version": 1
  }
}